{
  "_format": "hh3-artifact-1",
  "contractName": "UnrugpadToken",
  "sourceName": "contracts/UnrugpadToken.sol",
  "abi": [
    {
      "inputs": [],
      "stateMutability": "nonpayable",
      "type": "constructor"
    },
    {
      "inputs": [
        {
          "internalType": "address",
          "name": "target",
          "type": "address"
        }
      ],
      "name": "AddressEmptyCode",
      "type": "error"
    },
    {
      "inputs": [
        {
          "internalType": "address",
          "name": "implementation",
          "type": "address"
        }
      ],
      "name": "ERC1967InvalidImplementation",
      "type": "error"
    },
    {
      "inputs": [],
      "name": "ERC1967NonPayable",
      "type": "error"
    },
    {
      "inputs": [
        {
          "internalType": "address",
          "name": "spender",
          "type": "address"
        },
        {
          "internalType": "uint256",
          "name": "allowance",
          "type": "uint256"
        },
        {
          "internalType": "uint256",
          "name": "needed",
          "type": "uint256"
        }
      ],
      "name": "ERC20InsufficientAllowance",
      "type": "error"
    },
    {
      "inputs": [
        {
          "internalType": "address",
          "name": "sender",
          "type": "address"
        },
        {
          "internalType": "uint256",
          "name": "balance",
          "type": "uint256"
        },
        {
          "internalType": "uint256",
          "name": "needed",
          "type": "uint256"
        }
      ],
      "name": "ERC20InsufficientBalance",
      "type": "error"
    },
    {
      "inputs": [
        {
          "internalType": "address",
          "name": "approver",
          "type": "address"
        }
      ],
      "name": "ERC20InvalidApprover",
      "type": "error"
    },
    {
      "inputs": [
        {
          "internalType": "address",
          "name": "receiver",
          "type": "address"
        }
      ],
      "name": "ERC20InvalidReceiver",
      "type": "error"
    },
    {
      "inputs": [
        {
          "internalType": "address",
          "name": "sender",
          "type": "address"
        }
      ],
      "name": "ERC20InvalidSender",
      "type": "error"
    },
    {
      "inputs": [
        {
          "internalType": "address",
          "name": "spender",
          "type": "address"
        }
      ],
      "name": "ERC20InvalidSpender",
      "type": "error"
    },
    {
      "inputs": [],
      "name": "FailedCall",
      "type": "error"
    },
    {
      "inputs": [],
      "name": "InvalidInitialization",
      "type": "error"
    },
    {
      "inputs": [],
      "name": "NotInitializing",
      "type": "error"
    },
    {
      "inputs": [
        {
          "internalType": "address",
          "name": "owner",
          "type": "address"
        }
      ],
      "name": "OwnableInvalidOwner",
      "type": "error"
    },
    {
      "inputs": [
        {
          "internalType": "address",
          "name": "account",
          "type": "address"
        }
      ],
      "name": "OwnableUnauthorizedAccount",
      "type": "error"
    },
    {
      "inputs": [],
      "name": "UUPSUnauthorizedCallContext",
      "type": "error"
    },
    {
      "inputs": [
        {
          "internalType": "bytes32",
          "name": "slot",
          "type": "bytes32"
        }
      ],
      "name": "UUPSUnsupportedProxiableUUID",
      "type": "error"
    },
    {
      "anonymous": false,
      "inputs": [
        {
          "indexed": true,
          "internalType": "address",
          "name": "owner",
          "type": "address"
        },
        {
          "indexed": true,
          "internalType": "address",
          "name": "spender",
          "type": "address"
        },
        {
          "indexed": false,
          "internalType": "uint256",
          "name": "value",
          "type": "uint256"
        }
      ],
      "name": "Approval",
      "type": "event"
    },
    {
      "anonymous": false,
      "inputs": [
        {
          "indexed": true,
          "internalType": "address",
          "name": "account",
          "type": "address"
        },
        {
          "indexed": false,
          "internalType": "bool",
          "name": "exempt",
          "type": "bool"
        }
      ],
      "name": "FeeExemptUpdated",
      "type": "event"
    },
    {
      "anonymous": false,
      "inputs": [
        {
          "indexed": false,
          "internalType": "string",
          "name": "feeType",
          "type": "string"
        },
        {
          "indexed": false,
          "internalType": "uint256",
          "name": "marketing",
          "type": "uint256"
        },
        {
          "indexed": false,
          "internalType": "uint256",
          "name": "dev",
          "type": "uint256"
        },
        {
          "indexed": false,
          "internalType": "uint256",
          "name": "lp",
          "type": "uint256"
        }
      ],
      "name": "FeesUpdated",
      "type": "event"
    },
    {
      "anonymous": false,
      "inputs": [
        {
          "indexed": false,
          "internalType": "uint64",
          "name": "version",
          "type": "uint64"
        }
      ],
      "name": "Initialized",
      "type": "event"
    },
    {
      "anonymous": false,
      "inputs": [
        {
          "indexed": true,
          "internalType": "address",
          "name": "previousOwner",
          "type": "address"
        },
        {
          "indexed": true,
          "internalType": "address",
          "name": "newOwner",
          "type": "address"
        }
      ],
      "name": "OwnershipTransferred",
      "type": "event"
    },
    {
      "anonymous": false,
      "inputs": [
        {
          "indexed": true,
          "internalType": "address",
          "name": "pair",
          "type": "address"
        },
        {
          "indexed": false,
          "internalType": "bool",
          "name": "value",
          "type": "bool"
        }
      ],
      "name": "PairUpdated",
      "type": "event"
    },
    {
      "anonymous": false,
      "inputs": [
        {
          "indexed": false,
          "internalType": "uint256",
          "name": "amount",
          "type": "uint256"
        }
      ],
      "name": "PlatformFeeCollected",
      "type": "event"
    },
    {
      "anonymous": false,
      "inputs": [
        {
          "indexed": false,
          "internalType": "uint256",
          "name": "tokensSwapped",
          "type": "uint256"
        },
        {
          "indexed": false,
          "internalType": "uint256",
          "name": "ethReceived",
          "type": "uint256"
        },
        {
          "indexed": false,
          "internalType": "uint256",
          "name": "tokensIntoLiquidity",
          "type": "uint256"
        }
      ],
      "name": "SwapAndLiquify",
      "type": "event"
    },
    {
      "anonymous": false,
      "inputs": [
        {
          "indexed": true,
          "internalType": "address",
          "name": "from",
          "type": "address"
        },
        {
          "indexed": true,
          "internalType": "address",
          "name": "to",
          "type": "address"
        },
        {
          "indexed": false,
          "internalType": "uint256",
          "name": "value",
          "type": "uint256"
        }
      ],
      "name": "Transfer",
      "type": "event"
    },
    {
      "anonymous": false,
      "inputs": [
        {
          "indexed": true,
          "internalType": "address",
          "name": "implementation",
          "type": "address"
        }
      ],
      "name": "Upgraded",
      "type": "event"
    },
    {
      "anonymous": false,
      "inputs": [
        {
          "indexed": false,
          "internalType": "string",
          "name": "walletType",
          "type": "string"
        },
        {
          "indexed": true,
          "internalType": "address",
          "name": "newWallet",
          "type": "address"
        }
      ],
      "name": "WalletUpdated",
      "type": "event"
    },
    {
      "inputs": [],
      "name": "DENOMINATOR",
      "outputs": [
        {
          "internalType": "uint256",
          "name": "",
          "type": "uint256"
        }
      ],
      "stateMutability": "view",
      "type": "function"
    },
    {
      "inputs": [],
      "name": "MAX_FEE",
      "outputs": [
        {
          "internalType": "uint256",
          "name": "",
          "type": "uint256"
        }
      ],
      "stateMutability": "view",
      "type": "function"
    },
    {
      "inputs": [],
      "name": "PLATFORM_FEE",
      "outputs": [
        {
          "internalType": "uint256",
          "name": "",
          "type": "uint256"
        }
      ],
      "stateMutability": "view",
      "type": "function"
    },
    {
      "inputs": [],
      "name": "UPGRADE_INTERFACE_VERSION",
      "outputs": [
        {
          "internalType": "string",
          "name": "",
          "type": "string"
        }
      ],
      "stateMutability": "view",
      "type": "function"
    },
    {
      "inputs": [
        {
          "internalType": "address",
          "name": "owner",
          "type": "address"
        },
        {
          "internalType": "address",
          "name": "spender",
          "type": "address"
        }
      ],
      "name": "allowance",
      "outputs": [
        {
          "internalType": "uint256",
          "name": "",
          "type": "uint256"
        }
      ],
      "stateMutability": "view",
      "type": "function"
    },
    {
      "inputs": [
        {
          "internalType": "address",
          "name": "spender",
          "type": "address"
        },
        {
          "internalType": "uint256",
          "name": "value",
          "type": "uint256"
        }
      ],
      "name": "approve",
      "outputs": [
        {
          "internalType": "bool",
          "name": "",
          "type": "bool"
        }
      ],
      "stateMutability": "nonpayable",
      "type": "function"
    },
    {
      "inputs": [
        {
          "internalType": "address",
          "name": "account",
          "type": "address"
        }
      ],
      "name": "balanceOf",
      "outputs": [
        {
          "internalType": "uint256",
          "name": "",
          "type": "uint256"
        }
      ],
      "stateMutability": "view",
      "type": "function"
    },
    {
      "inputs": [],
      "name": "buyFees",
      "outputs": [
        {
          "internalType": "uint256",
          "name": "marketing",
          "type": "uint256"
        },
        {
          "internalType": "uint256",
          "name": "dev",
          "type": "uint256"
        },
        {
          "internalType": "uint256",
          "name": "lp",
          "type": "uint256"
        }
      ],
      "stateMutability": "view",
      "type": "function"
    },
    {
      "inputs": [],
      "name": "decimals",
      "outputs": [
        {
          "internalType": "uint8",
          "name": "",
          "type": "uint8"
        }
      ],
      "stateMutability": "view",
      "type": "function"
    },
    {
      "inputs": [],
      "name": "devWallet",
      "outputs": [
        {
          "internalType": "address",
          "name": "",
          "type": "address"
        }
      ],
      "stateMutability": "view",
      "type": "function"
    },
    {
      "inputs": [],
      "name": "getPlatformFee",
      "outputs": [
        {
          "internalType": "uint256",
          "name": "",
          "type": "uint256"
        }
      ],
      "stateMutability": "pure",
      "type": "function"
    },
    {
      "inputs": [],
      "name": "getTotalBuyFee",
      "outputs": [
        {
          "internalType": "uint256",
          "name": "",
          "type": "uint256"
        }
      ],
      "stateMutability": "view",
      "type": "function"
    },
    {
      "inputs": [],
      "name": "getTotalSellFee",
      "outputs": [
        {
          "internalType": "uint256",
          "name": "",
          "type": "uint256"
        }
      ],
      "stateMutability": "view",
      "type": "function"
    },
    {
      "inputs": [
        {
          "internalType": "string",
          "name": "_name",
          "type": "string"
        },
        {
          "internalType": "string",
          "name": "_symbol",
          "type": "string"
        },
        {
          "internalType": "uint256",
          "name": "_totalSupply",
          "type": "uint256"
        },
        {
          "internalType": "address",
          "name": "_owner",
          "type": "address"
        },
        {
          "internalType": "address",
          "name": "_marketingWallet",
          "type": "address"
        },
        {
          "internalType": "address",
          "name": "_devWallet",
          "type": "address"
        },
        {
          "internalType": "address",
          "name": "_platformWallet",
          "type": "address"
        },
        {
          "components": [
            {
              "internalType": "uint256",
              "name": "marketing",
              "type": "uint256"
            },
            {
              "internalType": "uint256",
              "name": "dev",
              "type": "uint256"
            },
            {
              "internalType": "uint256",
              "name": "lp",
              "type": "uint256"
            }
          ],
          "internalType": "struct UnrugpadToken.Fees",
          "name": "_buyFees",
          "type": "tuple"
        },
        {
          "components": [
            {
              "internalType": "uint256",
              "name": "marketing",
              "type": "uint256"
            },
            {
              "internalType": "uint256",
              "name": "dev",
              "type": "uint256"
            },
            {
              "internalType": "uint256",
              "name": "lp",
              "type": "uint256"
            }
          ],
          "internalType": "struct UnrugpadToken.Fees",
          "name": "_sellFees",
          "type": "tuple"
        },
        {
          "internalType": "address",
          "name": "_routerAddress",
          "type": "address"
        }
      ],
      "name": "initialize",
      "outputs": [],
      "stateMutability": "nonpayable",
      "type": "function"
    },
    {
      "inputs": [
        {
          "internalType": "address",
          "name": "",
          "type": "address"
        }
      ],
      "name": "isFeeExempt",
      "outputs": [
        {
          "internalType": "bool",
          "name": "",
          "type": "bool"
        }
      ],
      "stateMutability": "view",
      "type": "function"
    },
    {
      "inputs": [
        {
          "internalType": "address",
          "name": "",
          "type": "address"
        }
      ],
      "name": "isPair",
      "outputs": [
        {
          "internalType": "bool",
          "name": "",
          "type": "bool"
        }
      ],
      "stateMutability": "view",
      "type": "function"
    },
    {
      "inputs": [],
      "name": "marketingWallet",
      "outputs": [
        {
          "internalType": "address",
          "name": "",
          "type": "address"
        }
      ],
      "stateMutability": "view",
      "type": "function"
    },
    {
      "inputs": [],
      "name": "name",
      "outputs": [
        {
          "internalType": "string",
          "name": "",
          "type": "string"
        }
      ],
      "stateMutability": "view",
      "type": "function"
    },
    {
      "inputs": [],
      "name": "owner",
      "outputs": [
        {
          "internalType": "address",
          "name": "",
          "type": "address"
        }
      ],
      "stateMutability": "view",
      "type": "function"
    },
    {
      "inputs": [],
      "name": "platformWallet",
      "outputs": [
        {
          "internalType": "address",
          "name": "",
          "type": "address"
        }
      ],
      "stateMutability": "view",
      "type": "function"
    },
    {
      "inputs": [],
      "name": "proxiableUUID",
      "outputs": [
        {
          "internalType": "bytes32",
          "name": "",
          "type": "bytes32"
        }
      ],
      "stateMutability": "view",
      "type": "function"
    },
    {
      "inputs": [],
      "name": "renounceOwnership",
      "outputs": [],
      "stateMutability": "nonpayable",
      "type": "function"
    },
    {
      "inputs": [],
      "name": "sellFees",
      "outputs": [
        {
          "internalType": "uint256",
          "name": "marketing",
          "type": "uint256"
        },
        {
          "internalType": "uint256",
          "name": "dev",
          "type": "uint256"
        },
        {
          "internalType": "uint256",
          "name": "lp",
          "type": "uint256"
        }
      ],
      "stateMutability": "view",
      "type": "function"
    },
    {
      "inputs": [
        {
          "internalType": "uint256",
          "name": "_marketing",
          "type": "uint256"
        },
        {
          "internalType": "uint256",
          "name": "_dev",
          "type": "uint256"
        },
        {
          "internalType": "uint256",
          "name": "_lp",
          "type": "uint256"
        }
      ],
      "name": "setBuyFees",
      "outputs": [],
      "stateMutability": "nonpayable",
      "type": "function"
    },
    {
      "inputs": [
        {
          "internalType": "address",
          "name": "_devWallet",
          "type": "address"
        }
      ],
      "name": "setDevWallet",
      "outputs": [],
      "stateMutability": "nonpayable",
      "type": "function"
    },
    {
      "inputs": [
        {
          "internalType": "address",
          "name": "account",
          "type": "address"
        },
        {
          "internalType": "bool",
          "name": "exempt",
          "type": "bool"
        }
      ],
      "name": "setFeeExempt",
      "outputs": [],
      "stateMutability": "nonpayable",
      "type": "function"
    },
    {
      "inputs": [
        {
          "internalType": "address",
          "name": "_marketingWallet",
          "type": "address"
        }
      ],
      "name": "setMarketingWallet",
      "outputs": [],
      "stateMutability": "nonpayable",
      "type": "function"
    },
    {
      "inputs": [
        {
          "internalType": "address",
          "name": "pair",
          "type": "address"
        },
        {
          "internalType": "bool",
          "name": "value",
          "type": "bool"
        }
      ],
      "name": "setPair",
      "outputs": [],
      "stateMutability": "nonpayable",
      "type": "function"
    },
    {
      "inputs": [
        {
          "internalType": "address",
          "name": "_platformWallet",
          "type": "address"
        }
      ],
      "name": "setPlatformWallet",
      "outputs": [],
      "stateMutability": "nonpayable",
      "type": "function"
    },
    {
      "inputs": [
        {
          "internalType": "uint256",
          "name": "_marketing",
          "type": "uint256"
        },
        {
          "internalType": "uint256",
          "name": "_dev",
          "type": "uint256"
        },
        {
          "internalType": "uint256",
          "name": "_lp",
          "type": "uint256"
        }
      ],
      "name": "setSellFees",
      "outputs": [],
      "stateMutability": "nonpayable",
      "type": "function"
    },
    {
      "inputs": [
        {
          "internalType": "uint256",
          "name": "amount",
          "type": "uint256"
        }
      ],
      "name": "setSwapTokensAtAmount",
      "outputs": [],
      "stateMutability": "nonpayable",
      "type": "function"
    },
    {
      "inputs": [],
      "name": "swapTokensAtAmount",
      "outputs": [
        {
          "internalType": "uint256",
          "name": "",
          "type": "uint256"
        }
      ],
      "stateMutability": "view",
      "type": "function"
    },
    {
      "inputs": [],
      "name": "symbol",
      "outputs": [
        {
          "internalType": "string",
          "name": "",
          "type": "string"
        }
      ],
      "stateMutability": "view",
      "type": "function"
    },
    {
      "inputs": [],
      "name": "tokensForDev",
      "outputs": [
        {
          "internalType": "uint256",
          "name": "",
          "type": "uint256"
        }
      ],
      "stateMutability": "view",
      "type": "function"
    },
    {
      "inputs": [],
      "name": "tokensForLiquidity",
      "outputs": [
        {
          "internalType": "uint256",
          "name": "",
          "type": "uint256"
        }
      ],
      "stateMutability": "view",
      "type": "function"
    },
    {
      "inputs": [],
      "name": "tokensForMarketing",
      "outputs": [
        {
          "internalType": "uint256",
          "name": "",
          "type": "uint256"
        }
      ],
      "stateMutability": "view",
      "type": "function"
    },
    {
      "inputs": [],
      "name": "tokensForPlatform",
      "outputs": [
        {
          "internalType": "uint256",
          "name": "",
          "type": "uint256"
        }
      ],
      "stateMutability": "view",
      "type": "function"
    },
    {
      "inputs": [],
      "name": "totalSupply",
      "outputs": [
        {
          "internalType": "uint256",
          "name": "",
          "type": "uint256"
        }
      ],
      "stateMutability": "view",
      "type": "function"
    },
    {
      "inputs": [
        {
          "internalType": "address",
          "name": "to",
          "type": "address"
        },
        {
          "internalType": "uint256",
          "name": "value",
          "type": "uint256"
        }
      ],
      "name": "transfer",
      "outputs": [
        {
          "internalType": "bool",
          "name": "",
          "type": "bool"
        }
      ],
      "stateMutability": "nonpayable",
      "type": "function"
    },
    {
      "inputs": [
        {
          "internalType": "address",
          "name": "from",
          "type": "address"
        },
        {
          "internalType": "address",
          "name": "to",
          "type": "address"
        },
        {
          "internalType": "uint256",
          "name": "value",
          "type": "uint256"
        }
      ],
      "name": "transferFrom",
      "outputs": [
        {
          "internalType": "bool",
          "name": "",
          "type": "bool"
        }
      ],
      "stateMutability": "nonpayable",
      "type": "function"
    },
    {
      "inputs": [
        {
          "internalType": "address",
          "name": "newOwner",
          "type": "address"
        }
      ],
      "name": "transferOwnership",
      "outputs": [],
      "stateMutability": "nonpayable",
      "type": "function"
    },
    {
      "inputs": [],
      "name": "uniswapV2Pair",
      "outputs": [
        {
          "internalType": "address",
          "name": "",
          "type": "address"
        }
      ],
      "stateMutability": "view",
      "type": "function"
    },
    {
      "inputs": [],
      "name": "uniswapV2Router",
      "outputs": [
        {
          "internalType": "contract IUniswapV2Router02",
          "name": "",
          "type": "address"
        }
      ],
      "stateMutability": "view",
      "type": "function"
    },
    {
      "inputs": [
        {
          "internalType": "address",
          "name": "newImplementation",
          "type": "address"
        },
        {
          "internalType": "bytes",
          "name": "data",
          "type": "bytes"
        }
      ],
      "name": "upgradeToAndCall",
      "outputs": [],
      "stateMutability": "payable",
      "type": "function"
    },
    {
      "stateMutability": "payable",
      "type": "receive"
    }
  ],
  "bytecode": "0x60a080604052346100c257306080525f516020612dc25f395f51905f525460ff8160401c166100b3576002600160401b03196001600160401b03821601610060575b604051612cfb90816100c7823960805181818161127b015261131e0152f35b6001600160401b0319166001600160401b039081175f516020612dc25f395f51905f525581527fc7f505b2f371ae2175ee4913f4499e1f2633a7b5936321eed1cdaeb6115181d290602090a15f80610041565b63f92ee8a960e01b5f5260045ffd5b5f80fdfe6080604052600436101561001a575b3615610018575f80fd5b005b5f3560e01c806306fdde0314611994578063095ea7b31461196e5780630d075d9c1461189f5780630f683e90146117c95780631694505e146117a157806318160ddd146117785780631a8145bb1461175b5780631ebe8be8146117315780631f3fed8f146117145780631f53ac021461168b57806323b872dd146115b357806325bd713f14611596578063313ce5671461157b57806334fbc9a1146111bf5780633f4218e01461153e57806347cb8c04146114fd57806349bd5a5e146114d55780634f1ef286146112cf57806352d1902d146112695780635d098b38146111da5780636ea8bc10146111bf57806370a082311461117b578063715018a61461111457806375f0a874146110ec578063846f4d05146107cf57806386a22eff1461071a5780638831e9cf1461068c5780638da5cb5b146106585780638ea5220f146106305780638ebfc796146105c4578063918f8674146105a857806395d89b41146104ba5780639fccce321461049d578063a9059cbb1461046c578063ad3cb1cc1461042d578063afa4f3b21461037a578063bc063e1a1461035e578063dd62ed3e14610317578063e0f3ccf5146102e6578063e2f45605146102c9578063e4748b9e14610294578063e5e31b1314610257578063f2fde38b1461022e5763fa2af9da0361000e573461022a575f36600319011261022a576008546040516001600160a01b039091168152602090f35b5f80fd5b3461022a57602036600319011261022a5761001861024a611a7b565b610252611dc0565b611d4f565b3461022a57602036600319011261022a576001600160a01b03610278611a7b565b165f52600c602052602060ff60405f2054166040519015158152f35b3461022a575f36600319011261022a575f546001546002546040805193845260208401929092529082015280606081015b0390f35b3461022a575f36600319011261022a576020601254604051908152f35b3461022a575f36600319011261022a5760035460045460055460408051938452602084019290925290820152606090f35b3461022a57604036600319011261022a57610330611a7b565b61034161033b611a91565b91611ac1565b9060018060a01b03165f52602052602060405f2054604051908152f35b3461022a575f36600319011261022a576020604051610bb88152f35b3461022a57602036600319011261022a57600435610396611dc0565b5f516020612c465f395f51905f5254620186a0810482106103f7576064900481116103c057601255005b60405162461bcd60e51b815260206004820152600f60248201526e082dadeeadce840e8dede40d0d2ced608b1b6044820152606490fd5b60405162461bcd60e51b815260206004820152600e60248201526d416d6f756e7420746f6f206c6f7760901b6044820152606490fd5b3461022a575f36600319011261022a576102c560405161044e604082611b15565b60058152640352e302e360dc1b602082015260405191829182611a51565b3461022a57604036600319011261022a57610492610488611a7b565b6024359033611df3565b602060405160018152f35b3461022a575f36600319011261022a576020600e54604051908152f35b3461022a575f36600319011261022a576040515f5f516020612c065f395f51905f52546104e681611bd6565b8084529060018116908115610584575060011461051a575b6102c58361050e81850382611b15565b60405191829182611a51565b5f516020612c065f395f51905f525f9081527f46a2803e59a4de4e7a4c574b1243f25977ac4c77d5a1a4a609b5394cebb4a2aa939250905b80821061056a5750909150810160200161050e6104fe565b919260018160209254838588010152019101909291610552565b60ff191660208086019190915291151560051b8401909101915061050e90506104fe565b3461022a575f36600319011261022a5760206040516127108152f35b3461022a5760207f4d5771454588f51370a8a2e7e151354b6de0dc3159b14821b4ad76bc04c28bc76105f536611ba7565b92906105ff611dc0565b6001600160a01b03165f818152600b835260409020805460ff191660ff86151516179055925b6040519015158152a2005b3461022a575f36600319011261022a576007546040516001600160a01b039091168152602090f35b3461022a575f36600319011261022a575f516020612c265f395f51905f52546040516001600160a01b039091168152602090f35b3461022a57602036600319011261022a576106a5611a7b565b6106ad611dc0565b6001600160a01b03166106c1811515611cb3565b806001600160601b0360a01b60085416176008557f6ff3a4003b90be84595beb5f6acb9d54f88bd3e6dd4887ca67e53dc9645465ea6060604051602081526008602082015267706c6174666f726d60c01b6040820152a2005b3461022a5761072836611ba7565b610730611dc0565b600a546001600160a01b039283169216821461078a5760207fb40229924089a696fab5d90675c48d4ccf43269a56c8c545f5227708acbf4e5791835f52600c82526106258160405f209060ff801983541691151516179055565b60405162461bcd60e51b815260206004820152601760248201527f43616e6e6f742072656d6f7665206d61696e20706169720000000000000000006044820152606490fd5b3461022a576101c036600319011261022a5760043567ffffffffffffffff811161022a57610801903690600401611b89565b60243567ffffffffffffffff811161022a57610821903690600401611b89565b60643591906001600160a01b038316830361022a576084356001600160a01b038116810361022a5760a435906001600160a01b038216820361022a5760c435926001600160a01b038416840361022a5760603660e319011261022a5760405161088981611af9565b60e435815261010435602082015261012435604082015260603661014319011261022a57604051906108ba82611af9565b6101443582526101643560208301526101843560408301526101a435926001600160a01b038416840361022a575f516020612ca65f395f51905f52549767ffffffffffffffff891615806110de575b600167ffffffffffffffff8b161490816110d4575b1590816110cb575b506110bc57600167ffffffffffffffff198a16175f516020612ca65f395f51905f525560ff8960401c1615611090575b6001600160a01b038a1615611054576109796001600160a01b0387161515611c67565b61098d6001600160a01b0388161515611c1b565b6109a16001600160a01b0389161515611cb3565b6109bf6109b48451602086015190611c0e565b604085015190611c0e565b610bb86109e06109d58751602089015190611c0e565b604088015190611c0e565b911161100f57610bb810610fca576109f66124cc565b6109fe6124cc565b80519067ffffffffffffffff8211610eb3578190610a295f516020612bc65f395f51905f5254611bd6565b601f8111610f50575b50602090601f8311600114610ed2575f92610ec7575b50508160011b915f199060031b1c1916175f516020612bc65f395f51905f52555b80519067ffffffffffffffff8211610eb357610a925f516020612c065f395f51905f5254611bd6565b601f8111610e44575b50602090601f8311600114610dc1579180604095949286945f92610db6575b50508160011b915f199060031b1c1916175f516020612c065f395f51905f52555b610ae36124cc565b610aeb6124cc565b610af48a611d4f565b610afc6124cc565b600680546001600160a01b038881166001600160a01b031992831617909255600780548a8416908316179055600880548b841690831617905582515f5560208084015160015593909201516002558351600355838301516004908155949093015160055560098054938616939091168317905560405163c45a015560e01b81529392909184919082905afa908115610d6c576004925f92610d94575b506040516315ab88c960e31b81529260209184919082906001600160a01b03165afa908115610d6c5760446020925f948591610d77575b506040516364e329cb60e11b81523060048201526001600160a01b0391821660248201529485938492165af1908115610d6c575f91610d3d575b50600a80546001600160a01b0319166001600160a01b0392831690811782555f908152600c60209081526040808320805460ff1990811660019081179092558b87168552600b909352818420805484168217905530845281842080548416821790559585168352808320805483168717905595841682528582208054821686179055959092168252929020805490931617909155604435808202918115918304141715610d295760ff92612710610cc7920460125560443590611eb4565b60401c1615610cd257005b68ff0000000000000000195f516020612ca65f395f51905f5254165f516020612ca65f395f51905f52557fc7f505b2f371ae2175ee4913f4499e1f2633a7b5936321eed1cdaeb6115181d2602060405160018152a1005b634e487b7160e01b5f52601160045260245ffd5b610d5f915060203d602011610d65575b610d578183611b15565b810190611cff565b86610c09565b503d610d4d565b6040513d5f823e3d90fd5b610d8e9150843d8611610d6557610d578183611b15565b8a610bcf565b6020919250610daf90823d8411610d6557610d578183611b15565b9190610b98565b015190508c80610aba565b90601f198316915f516020612c065f395f51905f525f52815f20925f5b818110610e2c5750926001928592604098979596899710610e14575b505050811b015f516020612c065f395f51905f5255610adb565b01515f1960f88460031b161c191690558c8080610dfa565b92936020600181928786015181550195019301610dde565b5f516020612c065f395f51905f525f527f46a2803e59a4de4e7a4c574b1243f25977ac4c77d5a1a4a609b5394cebb4a2aa601f840160051c81019160208510610ea9575b601f0160051c01905b818110610e9e5750610a9b565b5f8155600101610e91565b9091508190610e88565b634e487b7160e01b5f52604160045260245ffd5b015190508b80610a48565b5f516020612bc65f395f51905f525f9081528281209350601f198516905b818110610f385750908460019594939210610f20575b505050811b015f516020612bc65f395f51905f5255610a69565b01515f1960f88460031b161c191690558b8080610f06565b92936020600181928786015181550195019301610ef0565b5f516020612bc65f395f51905f525f529091507f2ae08a8e29253f69ac5d979a101956ab8f8d9d7ded63fa7a83b16fc47648eab0601f840160051c81019160208510610fc0575b90601f859493920160051c01905b818110610fb25750610a32565b5f8155849350600101610fa5565b9091508190610f97565b60405162461bcd60e51b815260206004820152601860248201527f53656c6c206665657320657863656564206d6178696d756d00000000000000006044820152606490fd5b60405162461bcd60e51b815260206004820152601760248201527f427579206665657320657863656564206d6178696d756d0000000000000000006044820152606490fd5b60405162461bcd60e51b81526020600482015260146024820152734f776e65722063616e6e6f74206265207a65726f60601b6044820152606490fd5b68ffffffffffffffffff19891668010000000000000001175f516020612ca65f395f51905f5255610956565b63f92ee8a960e01b5f5260045ffd5b9050158b610926565b303b15915061091e565b5060ff8960401c1615610909565b3461022a575f36600319011261022a576006546040516001600160a01b039091168152602090f35b3461022a575f36600319011261022a5761112c611dc0565b5f516020612c265f395f51905f5280546001600160a01b031981169091555f906001600160a01b03167f8be0079c531659141344cd1fd0a4f28419497f9722a3daafe3b4186f6b6457e08280a3005b3461022a57602036600319011261022a576001600160a01b0361119c611a7b565b165f525f516020612be65f395f51905f52602052602060405f2054604051908152f35b3461022a575f36600319011261022a576020604051601e8152f35b3461022a57602036600319011261022a576111f3611a7b565b6111fb611dc0565b6001600160a01b031661120f811515611c67565b806001600160601b0360a01b60065416176006557f6ff3a4003b90be84595beb5f6acb9d54f88bd3e6dd4887ca67e53dc9645465ea60606040516020815260096020820152686d61726b6574696e6760b81b6040820152a2005b3461022a575f36600319011261022a577f00000000000000000000000000000000000000000000000000000000000000006001600160a01b031630036112c05760206040515f516020612c665f395f51905f528152f35b63703e46dd60e11b5f5260045ffd5b604036600319011261022a576112e3611a7b565b60243567ffffffffffffffff811161022a573660238201121561022a57611314903690602481600401359101611b53565b6001600160a01b037f0000000000000000000000000000000000000000000000000000000000000000163081149081156114b3575b506112c057611356611dc0565b6040516352d1902d60e01b81526001600160a01b0383169290602081600481875afa5f918161147f575b506113985783634c9c8ce360e01b5f5260045260245ffd5b805f516020612c665f395f51905f5285920361146d5750813b1561145b575f516020612c665f395f51905f5280546001600160a01b031916821790557fbc7cd75a20ee27fd9adebab32041f755214dbc6bffa90cc0225b39da2e5c2d3b5f80a2815115611443575f8083602061001895519101845af43d1561143b573d9161141f83611b37565b9261142d6040519485611b15565b83523d5f602085013e612b67565b606091612b67565b50503461144c57005b63b398979f60e01b5f5260045ffd5b634c9c8ce360e01b5f5260045260245ffd5b632a87526960e21b5f5260045260245ffd5b9091506020813d6020116114ab575b8161149b60209383611b15565b8101031261022a57519085611380565b3d915061148e565b5f516020612c665f395f51905f52546001600160a01b03161415905083611349565b3461022a575f36600319011261022a57600a546040516001600160a01b039091168152602090f35b3461022a575f36600319011261022a5761152861151f60035460045490611c0e565b60055490611c0e565b601e8101809111610d2957602090604051908152f35b3461022a57602036600319011261022a576001600160a01b0361155f611a7b565b165f52600b602052602060ff60405f2054166040519015158152f35b3461022a575f36600319011261022a57602060405160128152f35b3461022a575f36600319011261022a576020601054604051908152f35b3461022a57606036600319011261022a576115cc611a7b565b6115d4611a91565b604435906115e183611ac1565b335f9081526020919091526040902054925f198410611605575b6104929350611df3565b828410611670576001600160a01b0381161561165d57331561164a576104929361162e82611ac1565b60018060a01b0333165f526020528360405f20910390556115fb565b634a1406b160e11b5f525f60045260245ffd5b63e602df0560e01b5f525f60045260245ffd5b8284637dc7a0d960e11b5f523360045260245260445260645ffd5b3461022a57602036600319011261022a576116a4611a7b565b6116ac611dc0565b6001600160a01b03166116c0811515611c1b565b806001600160601b0360a01b60075416176007557f6ff3a4003b90be84595beb5f6acb9d54f88bd3e6dd4887ca67e53dc9645465ea60606040516020815260036020820152623232bb60e91b6040820152a2005b3461022a575f36600319011261022a576020600d54604051908152f35b3461022a575f36600319011261022a576115286117525f5460015490611c0e565b60025490611c0e565b3461022a575f36600319011261022a576020600f54604051908152f35b3461022a575f36600319011261022a5760205f516020612c465f395f51905f5254604051908152f35b3461022a575f36600319011261022a576009546040516001600160a01b039091168152602090f35b3461022a576117d736611aa7565b916117e0611dc0565b610bb86117f6846117f18585611c0e565b611c0e565b1161185a577f6f844632f5d64b28a7c4b31e6ee548fdfd8e9b3fc420e28e2f4c4217ba7e57739260c092826003558060045581600555604051926080845260046080850152631cd95b1b60e21b60a0850152602084015260408301526060820152a1005b60405162461bcd60e51b815260206004820152601e60248201527f546f74616c2073656c6c206665657320657863656564206d6178696d756d00006044820152606490fd5b3461022a576118ad36611aa7565b916118b6611dc0565b610bb86118c7846117f18585611c0e565b11611929577f6f844632f5d64b28a7c4b31e6ee548fdfd8e9b3fc420e28e2f4c4217ba7e57739260c092825f5580600155816002556040519260808452600360808501526262757960e81b60a0850152602084015260408301526060820152a1005b60405162461bcd60e51b815260206004820152601d60248201527f546f74616c20627579206665657320657863656564206d6178696d756d0000006044820152606490fd5b3461022a57604036600319011261022a5761049261198a611a7b565b6024359033611e44565b3461022a575f36600319011261022a576040515f5f516020612bc65f395f51905f52546119c081611bd6565b808452906001811690811561058457506001146119e7576102c58361050e81850382611b15565b5f516020612bc65f395f51905f525f9081527f2ae08a8e29253f69ac5d979a101956ab8f8d9d7ded63fa7a83b16fc47648eab0939250905b808210611a375750909150810160200161050e6104fe565b919260018160209254838588010152019101909291611a1f565b602060409281835280519182918282860152018484015e5f828201840152601f01601f1916010190565b600435906001600160a01b038216820361022a57565b602435906001600160a01b038216820361022a57565b606090600319011261022a57600435906024359060443590565b6001600160a01b03165f9081527f52c63247e1f47db19d5ce0460030c497f067ca4cebf71ba98eeadabe20bace016020526040902090565b6060810190811067ffffffffffffffff821117610eb357604052565b90601f8019910116810190811067ffffffffffffffff821117610eb357604052565b67ffffffffffffffff8111610eb357601f01601f191660200190565b929192611b5f82611b37565b91611b6d6040519384611b15565b82948184528183011161022a578281602093845f960137010152565b9080601f8301121561022a57816020611ba493359101611b53565b90565b604090600319011261022a576004356001600160a01b038116810361022a5790602435801515810361022a5790565b90600182811c92168015611c04575b6020831014611bf057565b634e487b7160e01b5f52602260045260245ffd5b91607f1691611be5565b91908201809211610d2957565b15611c2257565b60405162461bcd60e51b815260206004820152601960248201527f4465762077616c6c65742063616e6e6f74206265207a65726f000000000000006044820152606490fd5b15611c6e57565b60405162461bcd60e51b815260206004820152601f60248201527f4d61726b6574696e672077616c6c65742063616e6e6f74206265207a65726f006044820152606490fd5b15611cba57565b60405162461bcd60e51b815260206004820152601e60248201527f506c6174666f726d2077616c6c65742063616e6e6f74206265207a65726f00006044820152606490fd5b9081602091031261022a57516001600160a01b038116810361022a5790565b81810292918115918404141715610d2957565b8115611d3b570490565b634e487b7160e01b5f52601260045260245ffd5b6001600160a01b03168015611dad575f516020612c265f395f51905f5280546001600160a01b0319811683179091556001600160a01b03167f8be0079c531659141344cd1fd0a4f28419497f9722a3daafe3b4186f6b6457e05f80a3565b631e4fbdf760e01b5f525f60045260245ffd5b5f516020612c265f395f51905f52546001600160a01b03163303611de057565b63118cdaa760e01b5f523360045260245ffd5b91906001600160a01b03831615611e31576001600160a01b03811615611e1e57611e1c9261222f565b565b63ec442f0560e01b5f525f60045260245ffd5b634b637e8f60e11b5f525f60045260245ffd5b916001600160a01b03831691821561165d576001600160a01b031692831561164a577f8c5be1e5ebec7d5bd14f71427d1e84f3dd0314c0f7b2291e5b200ac8c7c3b92591611e93602092611ac1565b855f5282528060405f2055604051908152a3565b91908203918211610d2957565b811561222457305f525f516020612be65f395f51905f5260205260405f2054601254111580612217575b806121e3575b806121c3575b8061219f575b61217b575b5f8052600b6020527fdf7de25b7f1fd6d0b5205f0e18f1f35bd7b8d84cce336588d184533ce43a6f765460019060ff16801561215a575b612153575b5f8052600c6020527f13649b2456f1b42fef0f0040b3aaeabcd21a76a0f3f5defd4f583839455116e85460ff161580612131575b61212a575b5f90611f7d575b5090611e1c915f6125a2565b601e830292808404601e03610d295761205d61206892612710611e1c960490611fa882601054611c0e565b6010556001600160a01b0386165f908152600c602052604090205460ff1680612110575b1561207e575060035461205561204d6127106120268761204461203c61201e6120268961203361202b6120026004548094611c0e565b97612026612013600554809b611c0e565b9b8c97888094611d1e565b049e8f611d1e565b611d31565b600d54611c0e565b600d558a611d1e565b600e54611c0e565b600e5585611d1e565b600f54611c0e565b600f55611c0e565b908161206e57611ea7565b91611f71565b61207982305f6125a2565b611ea7565b5f8052600c6020527f13649b2456f1b42fef0f0040b3aaeabcd21a76a0f3f5defd4f583839455116e85460ff16806120f7575b15611c0e57505f5461205561204d6127106120268761204461203c61201e6120268961203361202b6120e66001548094611c0e565b97612026612013600254809b611c0e565b506121096117525f5460015490611c0e565b15156120b1565b5061212361151f60035460045490611c0e565b1515611fcc565b505f611f6a565b506001600160a01b0382165f908152600c602052604090205460ff1615611f65565b505f611f31565b506001600160a01b0382165f908152600b602052604090205460ff16611f2c565b600160ff1960115416176011556121906126b0565b60ff1960115416601155611ef5565b505f516020612c265f395f51905f52546001600160a01b0382811691161415611ef0565b505f516020612c265f395f51905f52546001600160a01b03161515611eea565b505f8052600c6020527f13649b2456f1b42fef0f0040b3aaeabcd21a76a0f3f5defd4f583839455116e85460ff1615611ee4565b5060ff6011541615611ede565b611e1c91505f6124f7565b919081156124c157305f525f516020612be65f395f51905f5260205260405f20546012541115806124b4575b80612492575b8061246e575b8061244a575b612426575b6001600160a01b0383165f818152600b602052604090205490939060019060ff168015612405575b6123fe575b845f52600c60205260ff60405f20541615806123dc575b6123d5575b5f906122cd575b50611e1c93506125a2565b9092601e8102818104601e03610d2957611e1c95612360936127106123559304916122fa83601054611c0e565b6010556001600160a01b0387165f908152600c602052604090205460ff16806123bb575b1561237257505060035461205561204d6127106120268761204461203c61201e6120268961203361202b6120026004548094611c0e565b908161236757611ea7565b915f6122c2565b6120798230876125a2565b5f52600c60205260ff60405f205416806120f75715611c0e57505f5461205561204d6127106120268761204461203c61201e6120268961203361202b6120e66001548094611c0e565b506123ce61151f60035460045490611c0e565b151561231e565b505f6122bb565b506001600160a01b0383165f908152600c602052604090205460ff16156122b6565b505f61229f565b506001600160a01b0383165f908152600b602052604090205460ff1661229a565b600160ff19601154161760115561243b6126b0565b60ff1960115416601155612272565b505f516020612c265f395f51905f52546001600160a01b038281169116141561226d565b505f516020612c265f395f51905f52546001600160a01b0384811691161415612267565b506001600160a01b0383165f908152600c602052604090205460ff1615612261565b5060ff601154161561225b565b9050611e1c916124f7565b60ff5f516020612ca65f395f51905f525460401c16156124e857565b631afcd79f60e31b5f5260045ffd5b5f916001600160a01b0390911690816125745760205f516020612c865f395f51905f5291612533855f516020612c465f395f51905f5254611c0e565b5f516020612c465f395f51905f52555b6001600160a01b0316938461255c575b604051908152a3565b8481525f516020612be65f395f51905f528252612553565b5f8281525f516020612be65f395f51905f5260209081529093505f516020612c865f395f51905f5291612543565b6001600160a01b031690816126445760205f516020612c865f395f51905f52916125da855f516020612c465f395f51905f5254611c0e565b5f516020612c465f395f51905f52555b6001600160a01b0316938461262257805f516020612c465f395f51905f5254035f516020612c465f395f51905f5255604051908152a3565b845f525f516020612be65f395f51905f52825260405f20818154019055612553565b815f525f516020612be65f395f51905f5260205260405f2054838110612695575f516020612c865f395f51905f529184602092855f525f516020612be65f395f51905f5284520360405f20556125ea565b91905063391434e360e21b5f5260045260245260445260645ffd5b5f90305f525f516020612be65f395f51905f5260205260405f2054916126db600d54600e5490611c0e565b906126f56126ec600f548094611c0e565b60105490611c0e565b9184158015612b5f575b612b5857601254601481029080820460141490151715610d2957808611612b4e575b506127338361202661273d9388611d1e565b60011c8095611ea7565b904792606090604051946127518387611b15565b6002865260208601601f198401368237865115612b1b573081526009546040516315ab88c960e31b81526001600160a01b0390911690602081600481855afa908115610d6c575f91612b2f575b50885160011015612b1b576001600160a01b031660408901526127c390879030611e44565b6009546001600160a01b031690813b1561022a579660405197889163791ac94760e01b835260a48301908960048501525f602485015260a060448501525180915260c4830191905f5b818110612af95750505091815f81819530606483015242608483015203925af1958615610d6c576128ab96612add575b50836128b361284e6128749347611ea7565b61207961285d600d5483611d1e565b61207961287a600f5460011c92612874848b611ea7565b90611d31565b9b8c9861289661288c600e5488611d1e565b6128748684611ea7565b9889946128a560105489611d1e565b92611ea7565b978894611ea7565b9681600d5581600e5581600f558160105580158015612aac575b5050908015908115612a7c575b505081158015612a13575b50505085151580612a0a575b6128fe575b505050509050565b6009546129169087906001600160a01b031630611e44565b6009545f516020612c265f395f51905f525460405163f305d71960e01b81523060048201526024810189905260448101859052606481018590526001600160a01b0391821660848201524260a4820152918391839160c49183918a91165af180156129ff576129d3575b5050506129c67f17bbfb9a6069321b6ded73bd96327c9e6b7212a5cd51ff219cd61370acafb5619394604051938493846040919493926060820195825260208201520152565b0390a1805f8080806128f6565b813d83116129f8575b6129e68183611b15565b810103126129f5578080612980565b80fd5b503d6129dc565b6040513d85823e3d90fd5b508315156128f1565b60085482918291829186916001600160a01b0316908390612a73575bf115612a685760207f1e78db4c4ee9ca4946fb3ee60599d1e0258a8b22e183510241ff770ab6332baf91604051908152a15f82816128e5565b6040513d84823e3d90fd5b506108fc612a2f565b82809291819260018060a01b0360075416908390612aa3575bf115612a6857825f806128da565b506108fc612a95565b6006548392839283926001600160a01b0316908390612ad4575bf1156129ff57835f806128cd565b506108fc612ac6565b61284e945090612af05f61287493611b15565b5f94509061283c565b82516001600160a01b031684528b94506020938401939092019160010161280c565b634e487b7160e01b5f52603260045260245ffd5b612b48915060203d602011610d6557610d578183611b15565b5f61279e565b9450612733612721565b5050509050565b5082156126ff565b90612b8b5750805115612b7c57602081519101fd5b63d6bda27560e01b5f5260045ffd5b81511580612bbc575b612b9c575090565b639996b31560e01b5f9081526001600160a01b0391909116600452602490fd5b50803b15612b9456fe52c63247e1f47db19d5ce0460030c497f067ca4cebf71ba98eeadabe20bace0352c63247e1f47db19d5ce0460030c497f067ca4cebf71ba98eeadabe20bace0052c63247e1f47db19d5ce0460030c497f067ca4cebf71ba98eeadabe20bace049016d09d72d40fdae2fd8ceac6b6234c7706214fd39c1cd1e609a0528c19930052c63247e1f47db19d5ce0460030c497f067ca4cebf71ba98eeadabe20bace02360894a13ba1a3210667c828492db98dca3e2076cc3735a920a3ca505d382bbcddf252ad1be2c89b69c2b068fc378daa952ba7f163c4a11628f55a4df523b3eff0c57e16840df040f15088dc2f81fe391c3923bec73e23a9662efc9c229c6a00a264697066735822122041fd9fbad52f92b4e5a8221fe9f3c8fb6958f15d2b0a88ec0ecce870c7744a2764736f6c634300081c0033f0c57e16840df040f15088dc2f81fe391c3923bec73e23a9662efc9c229c6a00",
  "linkReferences": {},
  "deployedLinkReferences": {},
  "immutableReferences": {
    "482": [
      {
        "length": 32,
        "start": 4731
      },
      {
        "length": 32,
        "start": 4894
      }
    ]
  },
  "inputSourceName": "project/contracts/UnrugpadToken.sol",
  "buildInfoId": "solc-0_8_28-691fa94c4944b7571f565dea4655605985c33d59"
}