{
  "_format": "hh3-artifact-1",
  "contractName": "UnrugpadTokenFactory",
  "sourceName": "contracts/UnrugpadToken.sol",
  "abi": [
    {
      "inputs": [
        {
          "internalType": "address",
          "name": "_tokenImplementation",
          "type": "address"
        },
        {
          "internalType": "address",
          "name": "_platformWallet",
          "type": "address"
        },
        {
          "internalType": "address",
          "name": "_defaultRouter",
          "type": "address"
        }
      ],
      "stateMutability": "nonpayable",
      "type": "constructor"
    },
    {
      "inputs": [
        {
          "internalType": "address",
          "name": "owner",
          "type": "address"
        }
      ],
      "name": "OwnableInvalidOwner",
      "type": "error"
    },
    {
      "inputs": [
        {
          "internalType": "address",
          "name": "account",
          "type": "address"
        }
      ],
      "name": "OwnableUnauthorizedAccount",
      "type": "error"
    },
    {
      "anonymous": false,
      "inputs": [
        {
          "indexed": false,
          "internalType": "address",
          "name": "newRouter",
          "type": "address"
        }
      ],
      "name": "DefaultRouterUpdated",
      "type": "event"
    },
    {
      "anonymous": false,
      "inputs": [
        {
          "indexed": false,
          "internalType": "uint256",
          "name": "newFee",
          "type": "uint256"
        }
      ],
      "name": "DeploymentFeeUpdated",
      "type": "event"
    },
    {
      "anonymous": false,
      "inputs": [
        {
          "indexed": false,
          "internalType": "bool",
          "name": "paused",
          "type": "bool"
        }
      ],
      "name": "DeploymentsPausedUpdated",
      "type": "event"
    },
    {
      "anonymous": false,
      "inputs": [
        {
          "indexed": false,
          "internalType": "address",
          "name": "newImplementation",
          "type": "address"
        }
      ],
      "name": "ImplementationUpdated",
      "type": "event"
    },
    {
      "anonymous": false,
      "inputs": [
        {
          "indexed": true,
          "internalType": "address",
          "name": "previousOwner",
          "type": "address"
        },
        {
          "indexed": true,
          "internalType": "address",
          "name": "newOwner",
          "type": "address"
        }
      ],
      "name": "OwnershipTransferred",
      "type": "event"
    },
    {
      "anonymous": false,
      "inputs": [
        {
          "indexed": false,
          "internalType": "address",
          "name": "newWallet",
          "type": "address"
        }
      ],
      "name": "PlatformWalletUpdated",
      "type": "event"
    },
    {
      "anonymous": false,
      "inputs": [
        {
          "indexed": true,
          "internalType": "address",
          "name": "tokenAddress",
          "type": "address"
        },
        {
          "indexed": true,
          "internalType": "address",
          "name": "creator",
          "type": "address"
        },
        {
          "indexed": false,
          "internalType": "string",
          "name": "name",
          "type": "string"
        },
        {
          "indexed": false,
          "internalType": "string",
          "name": "symbol",
          "type": "string"
        },
        {
          "indexed": false,
          "internalType": "uint256",
          "name": "totalSupply",
          "type": "uint256"
        }
      ],
      "name": "TokenCreated",
      "type": "event"
    },
    {
      "inputs": [
        {
          "internalType": "uint256",
          "name": "",
          "type": "uint256"
        }
      ],
      "name": "allTokens",
      "outputs": [
        {
          "internalType": "address",
          "name": "",
          "type": "address"
        }
      ],
      "stateMutability": "view",
      "type": "function"
    },
    {
      "inputs": [
        {
          "components": [
            {
              "internalType": "string",
              "name": "name",
              "type": "string"
            },
            {
              "internalType": "string",
              "name": "symbol",
              "type": "string"
            },
            {
              "internalType": "uint256",
              "name": "totalSupply",
              "type": "uint256"
            },
            {
              "internalType": "address",
              "name": "owner",
              "type": "address"
            },
            {
              "internalType": "address",
              "name": "marketingWallet",
              "type": "address"
            },
            {
              "internalType": "address",
              "name": "devWallet",
              "type": "address"
            },
            {
              "components": [
                {
                  "internalType": "uint256",
                  "name": "marketing",
                  "type": "uint256"
                },
                {
                  "internalType": "uint256",
                  "name": "dev",
                  "type": "uint256"
                },
                {
                  "internalType": "uint256",
                  "name": "lp",
                  "type": "uint256"
                }
              ],
              "internalType": "struct UnrugpadToken.Fees",
              "name": "buyFees",
              "type": "tuple"
            },
            {
              "components": [
                {
                  "internalType": "uint256",
                  "name": "marketing",
                  "type": "uint256"
                },
                {
                  "internalType": "uint256",
                  "name": "dev",
                  "type": "uint256"
                },
                {
                  "internalType": "uint256",
                  "name": "lp",
                  "type": "uint256"
                }
              ],
              "internalType": "struct UnrugpadToken.Fees",
              "name": "sellFees",
              "type": "tuple"
            },
            {
              "internalType": "uint256",
              "name": "buyFee",
              "type": "uint256"
            },
            {
              "internalType": "uint256",
              "name": "sellFee",
              "type": "uint256"
            }
          ],
          "internalType": "struct UnrugpadToken.TokenConfig",
          "name": "config",
          "type": "tuple"
        },
        {
          "internalType": "string",
          "name": "metadata",
          "type": "string"
        }
      ],
      "name": "createToken",
      "outputs": [
        {
          "internalType": "address",
          "name": "tokenAddress",
          "type": "address"
        }
      ],
      "stateMutability": "payable",
      "type": "function"
    },
    {
      "inputs": [],
      "name": "defaultRouter",
      "outputs": [
        {
          "internalType": "address",
          "name": "",
          "type": "address"
        }
      ],
      "stateMutability": "view",
      "type": "function"
    },
    {
      "inputs": [],
      "name": "deploymentFee",
      "outputs": [
        {
          "internalType": "uint256",
          "name": "",
          "type": "uint256"
        }
      ],
      "stateMutability": "view",
      "type": "function"
    },
    {
      "inputs": [],
      "name": "deploymentsPaused",
      "outputs": [
        {
          "internalType": "bool",
          "name": "",
          "type": "bool"
        }
      ],
      "stateMutability": "view",
      "type": "function"
    },
    {
      "inputs": [
        {
          "internalType": "uint256",
          "name": "index",
          "type": "uint256"
        }
      ],
      "name": "getTokenAtIndex",
      "outputs": [
        {
          "internalType": "address",
          "name": "",
          "type": "address"
        }
      ],
      "stateMutability": "view",
      "type": "function"
    },
    {
      "inputs": [],
      "name": "getTotalTokensCreated",
      "outputs": [
        {
          "internalType": "uint256",
          "name": "",
          "type": "uint256"
        }
      ],
      "stateMutability": "view",
      "type": "function"
    },
    {
      "inputs": [
        {
          "internalType": "address",
          "name": "user",
          "type": "address"
        }
      ],
      "name": "getUserTokens",
      "outputs": [
        {
          "internalType": "address[]",
          "name": "",
          "type": "address[]"
        }
      ],
      "stateMutability": "view",
      "type": "function"
    },
    {
      "inputs": [
        {
          "internalType": "address",
          "name": "",
          "type": "address"
        }
      ],
      "name": "isTokenFromFactory",
      "outputs": [
        {
          "internalType": "bool",
          "name": "",
          "type": "bool"
        }
      ],
      "stateMutability": "view",
      "type": "function"
    },
    {
      "inputs": [],
      "name": "owner",
      "outputs": [
        {
          "internalType": "address",
          "name": "",
          "type": "address"
        }
      ],
      "stateMutability": "view",
      "type": "function"
    },
    {
      "inputs": [],
      "name": "platformWallet",
      "outputs": [
        {
          "internalType": "address",
          "name": "",
          "type": "address"
        }
      ],
      "stateMutability": "view",
      "type": "function"
    },
    {
      "inputs": [],
      "name": "renounceOwnership",
      "outputs": [],
      "stateMutability": "nonpayable",
      "type": "function"
    },
    {
      "inputs": [
        {
          "internalType": "address",
          "name": "_newRouter",
          "type": "address"
        }
      ],
      "name": "setDefaultRouter",
      "outputs": [],
      "stateMutability": "nonpayable",
      "type": "function"
    },
    {
      "inputs": [
        {
          "internalType": "uint256",
          "name": "_newFee",
          "type": "uint256"
        }
      ],
      "name": "setDeploymentFee",
      "outputs": [],
      "stateMutability": "nonpayable",
      "type": "function"
    },
    {
      "inputs": [
        {
          "internalType": "bool",
          "name": "_paused",
          "type": "bool"
        }
      ],
      "name": "setDeploymentsPaused",
      "outputs": [],
      "stateMutability": "nonpayable",
      "type": "function"
    },
    {
      "inputs": [
        {
          "internalType": "address",
          "name": "_newImplementation",
          "type": "address"
        }
      ],
      "name": "setImplementation",
      "outputs": [],
      "stateMutability": "nonpayable",
      "type": "function"
    },
    {
      "inputs": [
        {
          "internalType": "address",
          "name": "_newWallet",
          "type": "address"
        }
      ],
      "name": "setPlatformWallet",
      "outputs": [],
      "stateMutability": "nonpayable",
      "type": "function"
    },
    {
      "inputs": [],
      "name": "tokenImplementation",
      "outputs": [
        {
          "internalType": "address",
          "name": "",
          "type": "address"
        }
      ],
      "stateMutability": "view",
      "type": "function"
    },
    {
      "inputs": [
        {
          "internalType": "address",
          "name": "newOwner",
          "type": "address"
        }
      ],
      "name": "transferOwnership",
      "outputs": [],
      "stateMutability": "nonpayable",
      "type": "function"
    },
    {
      "inputs": [
        {
          "internalType": "address",
          "name": "",
          "type": "address"
        },
        {
          "internalType": "uint256",
          "name": "",
          "type": "uint256"
        }
      ],
      "name": "userTokens",
      "outputs": [
        {
          "internalType": "address",
          "name": "",
          "type": "address"
        }
      ],
      "stateMutability": "view",
      "type": "function"
    },
    {
      "inputs": [
        {
          "internalType": "address",
          "name": "token",
          "type": "address"
        }
      ],
      "name": "verifyToken",
      "outputs": [
        {
          "internalType": "bool",
          "name": "",
          "type": "bool"
        }
      ],
      "stateMutability": "view",
      "type": "function"
    },
    {
      "inputs": [],
      "name": "withdrawStuckBNB",
      "outputs": [],
      "stateMutability": "nonpayable",
      "type": "function"
    },
    {
      "stateMutability": "payable",
      "type": "receive"
    }
  ],
  "bytecode": "0x608034620001db57601f62001ac338819003918201601f191683019291906001600160401b03841183851017620001df578160609284926040968752833981010312620001db576200005181620001f3565b6200006c836200006460208501620001f3565b9301620001f3565b3315620001c4575f549260018060a01b03908160018060a01b03199433868816175f55875196823391167f8be0079c531659141344cd1fd0a4f28419497f9722a3daafe3b4186f6b6457e05f80a31694851562000182575081169182156200013e57169283156200010957826002541617600255816001541617600155600354161760035560ff1960055416600555516118ba9081620002098239f35b845162461bcd60e51b815260206004820152600e60248201526d24b73b30b634b2103937baba32b960911b6044820152606490fd5b855162461bcd60e51b815260206004820152601760248201527f496e76616c696420706c6174666f726d2077616c6c65740000000000000000006044820152606490fd5b62461bcd60e51b815260206004820152601660248201527f496e76616c696420696d706c656d656e746174696f6e000000000000000000006044820152606490fd5b8351631e4fbdf760e01b81525f6004820152602490fd5b5f80fd5b634e487b7160e01b5f52604160045260245ffd5b51906001600160a01b0382168203620001db5756fe608060405260043610156200001c575b36156200001a575f80fd5b005b5f803560e01c8062539af014620012ef5780631d66d69014620012d05780632f3a3d5d14620012a65780634130276b1462000d50578063484ed334146200122a578063519dc8d2146200117357806352df107f1462001149578063634282af146200111b578063715018a614620010c0578063789b9e17146200109c5780638831e9cf1462000fee5780638da5cb5b1462000fc557806397988dce1462000f43578063c39a82821462000edc578063d002462b1462000e47578063d784d4261462000d91578063dbd593061462000d50578063eb57e4f3146200026d578063f2cff57f146200024d578063f2fde38b14620001be578063f9f411d8146200015c5763fa2af9da146200012f57506200000f565b3462000159578060031936011262000159576001546040516001600160a01b039091168152602090f35b80fd5b50346200015957604036600319011262000159576200017a6200139d565b6001600160a01b03908116825260066020526040822080546024359390841015620001595750602092620001ae9162001413565b9190546040519260031b1c168152f35b5034620001595760203660031901126200015957620001dc6200139d565b620001e66200156e565b6001600160a01b0390811690811562000234575f54826001600160601b0360a01b8216175f55167f8be0079c531659141344cd1fd0a4f28419497f9722a3daafe3b4186f6b6457e05f80a380f35b604051631e4fbdf760e01b815260048101849052602490fd5b503462000159578060031936011262000159576020600454604051908152f35b5060031990604036830112620008dd576004359167ffffffffffffffff8311620008dd576101c0908336030112620008dd5760405191610140830183811067ffffffffffffffff821117620008a157604052806004013567ffffffffffffffff8111620008dd57620002e6906004369184010162001469565b835260248101359067ffffffffffffffff8211620008dd57620003136101a4926004369184010162001469565b6020850152604481013560408501526200033060648201620013b4565b60608501526200034360848201620013b4565b60808501526200035660a48201620013b4565b60a08501526200036a3660c48301620014b5565b60c08501526200037f366101248301620014b5565b60e0850152610184810135610100850152013561012083015260243567ffffffffffffffff8111620008dd57620003bb90369060040162001469565b60ff6005541662000d125760608301516001600160a01b03161562000cd65760808301516001600160a01b03161562000c915760a08301516001600160a01b03161562000c4c578251511562000c10576020830151511562000bd25760408301511562000b8e576c0c9f2c9cd04674edea4000000060408401511162000b56576105dc60c0840151511162000b11576105dc602060c085015101511162000ad5576105dc604060c085015101511162000a9a576105dc60e0840151511162000a55576105dc602060e085015101511162000a18576105dc604060e0850151015111620009dc576105dc61010084015111620009a4576105dc610120840151116200096b57620004fb620004ee620004de60c086015160208151910151906200159a565b604060c08701510151906200159a565b610100850151906200159a565b620005376200052a6200051a60e087015160208151910151906200159a565b604060e08801510151906200159a565b610120860151906200159a565b610bb8809211620009265711620008e1576200067660018060a01b03600154166200066760018060a01b036003541691604051948593634dd712ab60e11b602086015260806024860152620005b66200059f8a516101c060a48901526102648801906200152e565b60208b015187820360a3190160c48901526200152e565b60408a81015160e488015260608b01516001600160a01b0390811661010489015260808c0151811661012489015260a08c01511661014488015260c08b01518051610164890152602081015161018489015201516101a48701529260e08a015180516101c488015260208101516101e4880152604001516102048701526101008a01516102248701526101208a0151610244870152604486015260648501528382036023190160848501526200152e565b03601f19810183528262001429565b60025460405191906001600160a01b031667ffffffffffffffff6102c8840190811190841117620008a1578291620006ca916102c8620015bd85396102c8840190815260406020820181905201906200152e565b03905ff08015620008d2576001600160a01b031690813b15620008dd57604051639e78fb4f60e01b81525f8160048183875af18015620008d257620008b5575b5060608301516001600160a01b03168152600660205260408120805468010000000000000000919082811015620008a1576200074c9160018201815562001413565b81546001600160a01b0360039290921b91821b19169085901b17905560085490811015620008a157806001620007869201600855620013c9565b81546001600160a01b0360039290921b91821b19169084901b179055818152600760205260408120805460ff19166001179055346200083d575b50602091817f6e6ae68e7d7d45fbd855c40d1eaafa8de46c5fbec3ee26f1af88730e400bc92c6200081e60018060a01b03606085015116938051906200082c604089830151920151916040519485946060865260608601906200152e565b908482038b8601526200152e565b9060408301520390a3604051908152f35b8080803460018060a01b03600154165af162000858620014fa565b501562000866575f620007c0565b60405162461bcd60e51b8152602060048201526013602482015272119959481d1c985b9cd9995c8819985a5b1959606a1b6044820152606490fd5b634e487b7160e01b5f52604160045260245ffd5b905067ffffffffffffffff8111620008a1576040525f806200070a565b6040513d5f823e3d90fd5b5f80fd5b60405162461bcd60e51b815260206004820152601a60248201527f546f74616c2073656c6c206665657320657863656564203330250000000000006044820152606490fd5b60405162461bcd60e51b815260206004820152601960248201527f546f74616c2062757920666565732065786365656420333025000000000000006044820152606490fd5b60405162461bcd60e51b81526020600482015260116024820152700a6cad8d840cccaca40e8dede40d0d2ced607b1b6044820152606490fd5b60405162461bcd60e51b815260206004820152601060248201526f084eaf240cccaca40e8dede40d0d2ced60831b6044820152606490fd5b60405162461bcd60e51b81526020600482015260146024820152730a6cad8d84098a040cccaca40e8dede40d0d2ced60631b6044820152606490fd5b60405162461bcd60e51b81526020600482015260156024820152740a6cad8d840c8caec40cccaca40e8dede40d0d2ced605b1b6044820152606490fd5b60405162461bcd60e51b815260206004820152601b60248201527f53656c6c206d61726b6574696e672066656520746f6f206869676800000000006044820152606490fd5b60405162461bcd60e51b8152602060048201526013602482015272084eaf24098a040cccaca40e8dede40d0d2ced606b1b6044820152606490fd5b60405162461bcd60e51b8152602060048201526014602482015273084eaf240c8caec40cccaca40e8dede40d0d2ced60631b6044820152606490fd5b60405162461bcd60e51b815260206004820152601a60248201527f427579206d61726b6574696e672066656520746f6f20686967680000000000006044820152606490fd5b60405162461bcd60e51b815260206004820152601060248201526f537570706c7920746f6f206c6172676560801b6044820152606490fd5b606460405162461bcd60e51b815260206004820152602060248201527f537570706c79206d7573742062652067726561746572207468616e207a65726f6044820152fd5b60405162461bcd60e51b815260206004820152601660248201527553796d626f6c2063616e6e6f7420626520656d70747960501b6044820152606490fd5b60405162461bcd60e51b81526020600482015260146024820152734e616d652063616e6e6f7420626520656d70747960601b6044820152606490fd5b60405162461bcd60e51b815260206004820152601960248201527f4465762077616c6c65742063616e6e6f74206265207a65726f000000000000006044820152606490fd5b60405162461bcd60e51b815260206004820152601f60248201527f4d61726b6574696e672077616c6c65742063616e6e6f74206265207a65726f006044820152606490fd5b60405162461bcd60e51b81526020600482015260146024820152734f776e65722063616e6e6f74206265207a65726f60601b6044820152606490fd5b60405162461bcd60e51b815260206004820152601660248201527511195c1b1bde5b595b9d1cc8185c99481c185d5cd95960521b6044820152606490fd5b34620008dd576020366003190112620008dd576001600160a01b0362000d756200139d565b165f526007602052602060ff60405f2054166040519015158152f35b34620008dd576020366003190112620008dd5762000dae6200139d565b62000db86200156e565b6001600160a01b0316801562000e09576020817f310ba5f1d2ed074b51e2eccd052a47ae9ab7c6b800d1fca3db3999d6a592ca03926001600160601b0360a01b6002541617600255604051908152a1005b60405162461bcd60e51b815260206004820152601660248201527524b73b30b634b21034b6b83632b6b2b73a30ba34b7b760511b6044820152606490fd5b34620008dd576020366003190112620008dd5760043562000e676200156e565b670de0b6b3a7640000811162000ea8576020817f40bd824d588484917db8fa4fc894c1e0feae5a75885290ba7b97521cebf82a8092600455604051908152a1005b60405162461bcd60e51b815260206004820152600c60248201526b08ccaca40e8dede40d0d2ced60a31b6044820152606490fd5b34620008dd576020366003190112620008dd57600435801515809103620008dd5760207f3a4afba2784f021fbf6dd454cf7a40653085c341d77c237fed0b487a9ec2bc959162000f2b6200156e565b60ff196005541660ff821617600555604051908152a1005b34620008dd576020366003190112620008dd5760043560085481101562000f8a5762000f71602091620013c9565b905460405160039290921b1c6001600160a01b03168152f35b60405162461bcd60e51b8152602060048201526013602482015272496e646578206f7574206f6620626f756e647360681b6044820152606490fd5b34620008dd575f366003190112620008dd575f546040516001600160a01b039091168152602090f35b34620008dd576020366003190112620008dd576200100b6200139d565b620010156200156e565b6001600160a01b0316801562001066576020817f73238e3ae0a71b401b31ae67204506d074de41bd5c084082fba9b64b1c7fa28f926001600160601b0360a01b6001541617600155604051908152a1005b60405162461bcd60e51b815260206004820152600e60248201526d125b9d985b1a59081dd85b1b195d60921b6044820152606490fd5b34620008dd575f366003190112620008dd57602060ff600554166040519015158152f35b34620008dd575f366003190112620008dd57620010dc6200156e565b5f80546001600160a01b0319811682556001600160a01b03167f8be0079c531659141344cd1fd0a4f28419497f9722a3daafe3b4186f6b6457e08280a3005b34620008dd576020366003190112620008dd57600435600854811015620008dd5762000f71602091620013c9565b34620008dd575f366003190112620008dd576003546040516001600160a01b039091168152602090f35b34620008dd57602080600319360112620008dd576001600160a01b0390816200119b6200139d565b165f526006815260405f20604051918281835491828152019081935f52825f20905f5b818110620012135750505083620011d791038462001429565b6040519281840190828552518091526040840192915f5b828110620011fc5785850386f35b8351871685529381019392810192600101620011ee565b8254881684529284019260019283019201620011be565b34620008dd575f366003190112620008dd57620012466200156e565b5f805481908190819047906001600160a01b03165af162001266620014fa565b50156200126f57005b60405162461bcd60e51b815260206004820152600f60248201526e151c985b9cd9995c8819985a5b1959608a1b6044820152606490fd5b34620008dd575f366003190112620008dd576002546040516001600160a01b039091168152602090f35b34620008dd575f366003190112620008dd576020600854604051908152f35b34620008dd576020366003190112620008dd576200130c6200139d565b620013166200156e565b6001600160a01b0316801562001367576020817f1457091fcad2542fd4d503f48c3704dfc0c88781edb68f6af5733565e97aa0c4926001600160601b0360a01b6003541617600355604051908152a1005b60405162461bcd60e51b815260206004820152600e60248201526d24b73b30b634b2103937baba32b960911b6044820152606490fd5b600435906001600160a01b0382168203620008dd57565b35906001600160a01b0382168203620008dd57565b600854811015620013ff5760085f527ff3f7a9fe364faab93b216da50a3214154f22a0a2b415b23a84c8169e8b636ee301905f90565b634e487b7160e01b5f52603260045260245ffd5b8054821015620013ff575f5260205f2001905f90565b90601f8019910116810190811067ffffffffffffffff821117620008a157604052565b67ffffffffffffffff8111620008a157601f01601f191660200190565b81601f82011215620008dd5780359062001483826200144c565b9262001493604051948562001429565b82845260208383010111620008dd57815f926020809301838601378301015290565b9190826060910312620008dd576040516060810181811067ffffffffffffffff821117620008a157604052604080829480358452602081013560208501520135910152565b3d1562001529573d906200150e826200144c565b916200151e604051938462001429565b82523d5f602084013e565b606090565b91908251928382525f5b84811062001559575050825f602080949584010152601f8019910116010190565b60208183018101518483018201520162001538565b5f546001600160a01b031633036200158257565b60405163118cdaa760e01b8152336004820152602490fd5b91908201809211620015a857565b634e487b7160e01b5f52601160045260245ffdfe60806040526102c8803803806100148161018e565b92833981019060408183031261018a5780516001600160a01b03811680820361018a5760208381015190936001600160401b03821161018a570184601f8201121561018a5780519061006d610068836101c7565b61018e565b9582875285838301011161018a5784905f5b8381106101765750505f9186010152813b1561015e577f360894a13ba1a3210667c828492db98dca3e2076cc3735a920a3ca505d382bbc80546001600160a01b03191682179055604051907fbc7cd75a20ee27fd9adebab32041f755214dbc6bffa90cc0225b39da2e5c2d3b5f80a283511561014057505f80848461012796519101845af4903d15610137573d610118610068826101c7565b9081525f81943d92013e6101e2565b505b604051608290816102468239f35b606092506101e2565b925050503461014f5750610129565b63b398979f60e01b8152600490fd5b60249060405190634c9c8ce360e01b82526004820152fd5b81810183015188820184015286920161007f565b5f80fd5b6040519190601f01601f191682016001600160401b038111838210176101b357604052565b634e487b7160e01b5f52604160045260245ffd5b6001600160401b0381116101b357601f01601f191660200190565b9061020957508051156101f757602081519101fd5b60405163d6bda27560e01b8152600490fd5b8151158061023c575b61021a575090565b604051639996b31560e01b81526001600160a01b039091166004820152602490fd5b50803b1561021256fe60806040527f360894a13ba1a3210667c828492db98dca3e2076cc3735a920a3ca505d382bbc545f9081906001600160a01b0316368280378136915af43d5f803e156048573d5ff35b3d5ffdfea2646970667358221220b7918e57c01a10e0f127cd9b3ca463a918595d9d43cb0aa8553e18582de01af164736f6c63430008180033a264697066735822122020bb9d55865388b2f26e3c87da879b82e53203902175e65a2dee1df03b47451464736f6c63430008180033",
  "linkReferences": {},
  "deployedLinkReferences": {},
  "immutableReferences": {},
  "inputSourceName": "project/contracts/UnrugpadToken.sol",
  "buildInfoId": "solc-0_8_24-937cb0ad6b39f06f8af935d969634c20ec4b024e"
}